8=FIX.4.0|9=72|35=A|34=1|49=SHARPROUTE|52=20120617-00:04:17|56=TESTCLIENT1|98=0|108=30|10=105|8=FIX.4.0|9=74|35=2|34=2|49=SHARPROUTE|52=20120617-00:04:29|56=TESTCLIENT1|7=2|16=999999|10=233|8=FIX.4.0|9=60|35=0|34=3|49=SHARPROUTE|52=20120617-00:04:59|56=TESTCLIENT1|10=068|8=FIX.4.0|9=60|35=0|34=4|49=SHARPROUTE|52=20120617-00:05:29|56=TESTCLIENT1|10=067|