8=FIX.4.0|9=72|35=A|34=1|49=SHARPROUTE|52=20120617-00:05:27|56=TESTCLIENT2|98=0|108=30|10=108|